:020000040000fa
:080000000002040000000000f2
:020000040000fa
:10000800d2020000d2020000d2020000d202000098
:10001800d2020000d2020000d2020000d202000088
:10002800d202000052c20000d202000094bc0000bc
:10003800d202000070c20000d2020000d8bc00004a
:1000480018bd0000d2020000d202000088a80000fb
:100058006aa80000a0c00000d2020000d20200007e
:10006800d2020000d2020000d2020000d202000038
:10007800d2020000d2020000d2020000d202000028
:10008800d2020000d2020000d202000056bd0000d9
:1000980092bd0000d2020000d2020000d20200008d
:1000a800d2020000d2020000d2020000d2020000f8
:1000b800d2020000d2020000d2020000d2020000e8
:1000c800d2020000d2020000d2020000d2020000d8
:1000d800d2020000d2020000d2020000d2020000c8
:1000e800d2020000d2020000d2020000d2020000b8
:1000f800d2020000d2020000d2020000d2020000a8
:10010800d2020000d2020000e2b30000d2020000d6
:10011800d2020000d2020000d2020000d202000087
:10012800d2020000d2020000d2020000d202000077
:10013800d2020000d2020000d2020000d202000067
:10014800d2020000d2020000d20200005ab400001d
:10015800d2020000d2020000d2020000d202000047
:10016800d2020000d2020000d2020000d202000037
:10017800d2020000d2020000d2020000d202000027
:10018800d2020000d2020000d2020000d202000017
:10019800d2020000d2020000d2020000d202000007
:1001a800d2020000d2020000d2020000d2020000f7
:1001b800d2020000d2020000d2020000d2020000e7
:1001c800d2020000d2020000d2020000d2020000d7
:1001d800d2020000d2020000d2020000d2020000c7
:1001e800d2020000d2020000d2020000d2020000b7
:1001f800d2020000d2020000d2020000d2020000a7
:10020800d2020000d2020000d2020000d202000096
:10021800d2020000d2020000d2020000d202000086
:10022800d2020000d2020000d2020000d202000076
:10023800d2020000d2020000d2020000d202000066
:10024800d2020000d2020000d2020000d202000056
:10025800d2020000d2020000d2020000d202000046
:020000040000fa
:100400004f3821000eff27000e0188000000000079
:10041000000020000000e000020032000001200087
:10042000200288000c00070000102c0001002000b2
:100430000f000700000020000000e0000200320072
:1004400000000200000000000eb6020000000000e4
:100450000040da000000fe00e04720000000e0005d
:1004600002003200002020009001880000000600f9
:10047000a1028800800078000000eb001a0037001d
:10048000e280400054a0b4009101ba00e280400034
:1004900054a0b4009102ba00e280400054a0b4001d
:1004a0000002eb00472bde00f507b200a601880032
:1004b000602ce10008003a000049eb000201e8006e
:1004c000020039003420ec0002f0a0008301e900b2
:1004d000f9ff3e00040037006128e100010032000e
:1004e0000082eb00040007001101ba000200e000e6
:1004f000e3ff3a000000060004d0a300e20f490029
:100500001c003900810278003549ba000201e80078
:10051000020039003420ec0002f0a0008301e90061
:100520000f0032002549ba000201e800020039003c
:100530003420ec0002f0a0008301e9000800320042
:100540000400e0000600320015c9ba000201e8000c
:10055000020039003420ec0002f0a0008301e90021
:100560008180e80054a0b4000300e000e2ff3a00fc
:10057000000006009102ba00055978008301e900e5
:10058000f7ff3200c82ade00055978008301e90030
:10059000f3ff32000400e000f1ff320011d9ba008d
:1005a000eeff37000040da000000fe00839f680085
:1005b0000100e00002003d0060001000e080180033
:1005c0000300e00002003d0060011100e08119001d
:1005d000050007004f00e00002003b006000100033
:1005e000e0801800000006006022b800060220002b
:1005f0000000d0008180d2000482d2008582d20027
:100600000000a0000202520083825a000300310061
:100610000202420083824a000000a1000603e900b2
:10062000f3ff3a0000000600efff07000400be00e1
:0406300000000600c0
:020000040000fa
:1006340006000000050000000600000005000000a0
:100644000600000006000000060000000300000091
:100654000300000002000000010000000000000090
:100664000000000005000000060000000500000076
:100674000600000005000000050000000500000061
:10068400030000000200000002000000010000005e
:10069400000000000000000006000000050000004b
:1006a400060000000500000006000000060000002f
:1006b400060000000300000002000000010000002a
:1006c40000000000ffff0000ffff00000600000024
:1006d4000500000005000000060000000500000001
:1006e40005000000050000000300000001000000f8
:1006f40000000000ffff0000ffff0000ffff0000fc
:1007040005000000040000000300000004000000d5
:1007140003000000030000000200000001000000cc
:1007240000000000feff0000ffff0000feff0000cd
:10073400feff0000040000000300000003000000ae
:10074400040000000300000003000000010000009a
:100754000000000000000000feff0000feff00009b
:10076400feff0000feff0000030000000300000085
:10077400030000000400000002000000010000006b
:1007840000000000ffff0000feff0000fcff00006f
:10079400fdff0000fdff0000fcff00000200000060
:1007a400020000000200000002000000000000003f
:1007b40000000000ffff0000fdff0000fdff00003f
:1007c400fcff0000fdff0000fdff0000fcff000037
:1007d400020000000200000001000000020000000e
:1007e40000000000ffff0000feff0000fdff00000e
:1007f400fdff0000fcff0000fdff0000fcff000007
:10080400fbff0000010000000200000001000000e6
:1008140000000000ffff0000fdff0000fbff0000e0
:10082400fbff0000fbff0000faff0000fbff0000dd
:10083400fbff0000faff00000100000001000000bf
:1008440000000000ffff0000feff0000fdff0000ad
:10085400faff0000faff0000faff0000fbff0000af
:10086400faff0000fbff0000faff00000000000098
:1008740000000000ffff0000feff0000fdff00007d
:10088400fdff0000fbff0000fbff0000fbff00007a
:10089400faff0000faff0000fbff0000fbff00006e
:1008a4000000000000000000ffff0000feff000049
:1008b400fdff0000fcff0000faff0000faff00004b
:1008c400faff0000faff0000fbff0000faff00003f
:1008d400faff000084ea00006cee000054f200000d
:1008e4003cf6000024fa00000cfe0000f4010000b5
:1008f400dc050000c4090000ac0d000094110000e8
:100904007c15000001000000030000000700000047
:100914000c000000130000001c0000002600000072
:10092400310000003e0000004d0000005d000000aa
:100934006e0000008100000095000000ab00000084
:10094400c3000000db000000f600000011010000fd
:100954002f0100004d0100006d0100008f01000017
:10096400b1010000d6010000fb01000022020000da
:100974004b020000740200009f020000e702000026
:100984002f03000077030000bf03000007040000ea
:100994004f04000097040000df0400002705000056
:1009a4006f050000b7050000ff05000047060000c2
:1009b4008f060000d70600001f070000670700002d
:1009c400af070000f70700003f0800008708000099
:1009d400cf080000170900005f090000a709000004
:1009e400ef090000370a00007f0a0000c70a000070
:1009f4000f0b0000570b00009f0b0000e70b0000db
:100a04002f0c0000770c0000bf0c0000070d000045
:100a14004f0d0000970d0000df0d0000270e0000b1
:100a24006f0e0000b70e0000ff0e0000470f00001d
:100a34008f0f0000d70f00001f1000006710000088
:100a4400af100000f71000003f11000087110000f4
:100a5400cf110000171200005f120000a71200005f
:100a6400ef120000371300007f130000c7130000cb
:100a74000f140000571400009f140000e714000036
:100a84002f15000077150000bf15000007160000a1
:100a94004f16000097160000df160000271700000d
:100aa4006f170000b7170000ff1700004718000079
:100ab4008f180000d71800001f19000067190000e4
:100ac400af190000f71900003f1a0000871a000050
:100ad400cf1a0000171b00005f1b0000a71b0000bb
:100ae400ef1b0000371c00007f1c0000c71c000027
:100af4000f1d0000571d00009f1d0000e71d000092
:100b04002f1e0000771e0000bf1e0000071f0000fc
:100b14004f1f0000971f0000df1f00002720000068
:100b24006f200000b7200000ff20000047210000d4
:100b34008f210000d72100001f220000672200003f
:100b4400af220000f72200003f23000087230000ab
:100b5400cf230000172400005f2400009c24000021
:100b6400c5240000ee240000152500003a250000ed
:100b74005f25000081250000a3250000c325000097
:100b8400e1250000ff2500001a260000352600009c
:100b94004d260000652600007b2600008f260000fd
:100ba400a2260000b3260000c3260000d2260000bf
:100bb400df260000ea260000f4260000fd260000df
:100bc40004270000092700000d2700000f2700005c
:100bd400102700001a0200001a0200005702000049
:100be400c102000047030000df030000800400008e
:100bf40028050000d5050000840600003507000024
:100c0400e80700008d08000025090000b509000070
:100c14003d0a0000be0a0000390b0000af0b0000c3
:100c2400200c00008e0c0000f80c00005f0d00008a
:100c3400c20d0000230e0000820e0000de0e000034
:100c4400380f0000900f0000e60f00003a1000007b
:100c54008c100000dd1000002d1100007b1100003d
:100c6400c7110000131200005d120000a61200005c
:100c7400ee120000351300007b130000c0130000c7
:100c8400041400004714000089140000cb14000071
:100c94000c1500004b1500008b150000c915000051
:100ca400071600004416000080160000bc16000061
:100cb400f7160000321700006c170000a51700009b
:100cc400de170000171800004e18000086180000f8
:100cd400bd180000f3180000291900005f19000076
:100ce40094190000c8190000fd190000311a000011
:100cf400641a0000971a0000ca1a0000fc1a0000c7
:100d04002e1b0000601b0000911b0000c21b000092
:100d1400f21b0000221c0000521c0000821c000078
:100d2400b11c0000e01c00000f1d00003d1d000070
:100d34006b1d0000991d0000c71d0000f41d00007c
:100d4400211e00004e1e00007a1e0000a71e000097
:100d5400d31e0000fe1e00002a1f0000551f0000c5
:100d6400801f0000ab1f0000d61f00000020000001
:100d74002a200000542000007e200000a72000004c
:100d8400d1200000fa200000232100004b210000a4
:100d9400742100009c210000c4210000ec2100000b
:100da400142200003c220000632200008a2200007a
:100db400b1220000d8220000fe22000024230000fb
:100dc400482300006c2300008f230000b12300009f
:100dd400d2230000f3230000132400003224000077
:100de400512400006e2400008b240000a82400007d
:100df400c3240000de240000f924000012250000b2
:100e04002b250000432500005b250000722500000f
:100e1400882500009e250000b3250000c72500009a
:100e2400db250000ee25000000260000122600004d
:100e3400232600003326000043260000532600002a
:100e4400612600006f2600007d2600008a2600002f
:100e540096260000a2260000ad260000b72600005a
:100e6400c1260000cb260000d3260000db260000ac
:100e7400e3260000ea260000f0260000f626000023
:100e8400fb260000002700000427000007270000bd
:100e94000a2700000d2700000e2700000f2700007e
:100ea40010270000c0000000f9000000a4000000aa
:100eb400b0000000990000009200000082000000d1
:100ec400f80000008000000090000000880000008e
:100ed40083000000c6000000a1000000860000009e
:100ee4008e000000af000000e3000000ab00000033
:100ef4007f000000fe000000fd000000fb00000079
:100f0400f7000000ef000000df000000bf00000059
:100f1400a30000000a0000000000000064000000bc
:0c0f240000000000580200000000000067
:020000040000fa
:100f30000e00fa00600798006e009000c949070093
:100f4000cf80de00008fbe006e0090000000e80041
:100f5000c4490700cf80de002007980031079800c1
:100f60001e00be00c001dd00020020002e00900027
:100f7000be00900000007100818071004007980061
:100f8000510798004e009000de0090000080fa00ab
:100f9000000006000800fa001007980022079800d9
:100fa000330798002e009000be0090004008de003d
:100fb000000f78009e0090001e007800194a07007c
:100fc000ae009000010f78001e0090000000e800c5
:100fd000800078001e007800124a07000080fa00a6
:040fe0000000060007
:020000040000fa
:020000040001f9
:100000000000fa00e3082100a2082100210c2100d1
:1000100020c0b3002c00070050848000e3062100bc
:10002000e20d21008000780020c0b30071000700bd
:100030005084800023072100c20f21008000780037
:1000400020c0b300430107005084800063072100f3
:10005000e21121008000780020c0b30019020700df
:1000600050848000a3072100421421008000780002
:1000700020c0b3002603070050848000e30721005e
:10008000a21621008000780020c0b3008f03070073
:10009000508480002308210022182100800078006d
:1000a00020c0b300d70407005084800063082100fb
:1000b000a21921008000780020c0b3002b050700a2
:1000c0000080fa00000006000800fa00004f7800e7
:1000d0001107980022079800330798001e40780007
:1000e000e14f50000a003a00800c200090c3070046
:1000f0001e0190000089be00a00c20008cc30700e8
:100100001e0190002001980031019800090037007d
:100110008025200086c307001e0190000089be00d4
:10012000a025200082c307001e0190002001980036
:10013000310198001e0090001001be00006a2800e6
:1001400011002000800f5100818f590010003a00eb
:100150001e00900020019000b001900070a22900c4
:1001600011002000800f5100818f590008003400d9
:100170001e00900020019000b0019000006c2c0047
:10018000d1022000800f5100818f59000c003400f3
:100190002e00900011002000010878003e00900021
:1001a00011002000010878008001eb000001eb0045
:1001b0001100200010002000931707000b003700eb
:1001c0002e00900021002000010878003e009000e1
:1001d0003100200001087800130020000001eb002e
:1001e0002100200010002000871707000080fa007f
:1001f000000006000800fa00004f78001107980080
:1002000022079800330798001e009000e10f50006d
:1002100030003a002e0190000073250051002000ac
:100220000089be002e019000003e29004100200000
:1002300020019800310198002e0190000053270002
:100240000100200040019800510198002e0090000c
:1002500001fa2000610098002e00900061c4b300f4
:10026000614898002e0090008040eb007148980093
:10027000be009000110078000000a0008008780007
:10028000be009000110078000010a00080087800e7
:10029000be009000110078000020a00080087800c7
:1002a000be009000110078000030a00080087800a7
:1002b000be009000110078000040a0008008780087
:1002c000be009000110078000050a0008008780067
:1002d0009e0037001e407800e14f50001e003a009b
:1002e000e00c200012c307002e0190000089be0020
:1002f000000d20000ec307002e0190002001980081
:1003000031019800200d200009c307002e01900044
:100310004001980051019800600d200004c30700bf
:10032000800078002e00900061009800400d2000b1
:10033000ffc20700804078002e00900061489800be
:10034000800d2000fac20700804078002e00900047
:10035000714898001d003700e0252000f4c2070016
:100360002e0190000089be0000262000f0c2070088
:100370002e019000200198003101980020262000d5
:10038000ebc207002e019000400198005101980037
:1003900060262000e6c20700800078002e00900052
:1003a0006100980040262000e1c2070080407800ec
:1003b0002e0090006148980080262000dcc20700d3
:1003c000804078002e009000714898002e00900028
:1003d0001001be00f070220001002000800f5100cb
:1003e000818f5900070034002e0090001001be00dc
:1003f00000242400f1002000800f5100818f59005b
:10040000040034002e0190000073250051002000ec
:100410000089be002e00900020019000b0019000e5
:10042000f070220001002000800f5100818f5900e0
:10043000080034002e00900020019000b0019000d0
:1004400000242400f1002000800f5100818f59000a
:10045000050034002e019000003e290041002000dc
:1004600020019800310198002e009000400190007a
:10047000d0019000f070220001002000800f510098
:10048000818f5900080034002e0090004001900038
:10049000d001900000242400f1002000800f5100c2
:1004a000818f5900050034002e0190000053270071
:1004b0000100200040019800510198002e0090009a
:1004c000e0009000703e2000808f50000500360054
:1004d0002e009000e000900000532700808f500015
:1004e000030036002e00900001fa20006100980001
:1004f0002e00900060489000fd4f5000050036002f
:100500002e009000e0489000a0c5b30080cf5000be
:10051000030036002e00900061c4b30061489800cb
:100520002e00900070489000e14f5000070032000c
:100530002e009000704890000004e000030032009c
:100540002e0090008040eb00714898000080fa0077
:10055000000006000800fa00004f7800110798001c
:1005600022079800330798001e009000e10f50000a
:1005700032003a002e009000017d20000108780032
:100580002e009000017d2000110098002e009000a8
:10059000813e2000210098002e009000813e200026
:1005a000310098002e009000c15d200041009800ad
:1005b0002e00900081572000510098002e009000de
:1005c0008000eb0061009800be00900011007800f0
:1005d0000000a00080087800be00900011007800a4
:1005e0000010a00080087800be0090001100780084
:1005f0000020a00080087800be0090001100780064
:100600000030a00080087800be0090001100780043
:100610000040a00080087800be0090001100780023
:100620000050a00080087800be0090001100780003
:100630000060a00080087800a00037001e4078000d
:10064000e14f500024003a00a00d200038c20700fe
:10065000800078002e00900001087800c00d200076
:1006600033c20700800078002e009000110098002f
:10067000e00d20002ec20700800078002e009000c0
:1006800021009800000e200029c207008000780099
:100690002e00900031009800200e200024c2070098
:1006a000800078002e00900041009800400e20004d
:1006b0001fc20700800078002e00900051009800b3
:1006c000600e20001ac20700800078002e00900003
:1006d0006100980023003700a026200014c2070004
:1006e000800078002e00900001087800c0262000cd
:1006f0000fc20700800078002e00900011009800c3
:10070000e02620000ac20700800078002e0090003a
:10071000210098000027200005c207008000780013
:100720002e009000310098002027200000c2070012
:10073000800078002e0090004100980040272000a3
:10074000fbc10700800078002e0090005100980047
:1007500060272000f6c10700800078002e0090007e
:10076000610098002e00900090007800301f20005b
:10077000808f5000050036002e0090009000780019
:1007800000f42100808f5000030036002e009000fe
:10079000017d2000010878002e009000900090005c
:1007a000301f2000808f5000050036002e00900082
:1007b0009000900000f42100808f5000030036006c
:1007c0002e009000017d2000110098002e00900066
:1007d000a000900030062000808f500005003600f9
:1007e0002e009000a000900080382100808f5000e3
:1007f000030036002e009000813e2000210098006a
:100800002e009000b000900030062000808f500035
:10081000050036002e009000b000900080382100c6
:10082000808f5000030036002e009000813e200093
:10083000310098002e009000c0009000301f200072
:10084000808f5000050036002e009000c000900000
:1008500000712200808f5000030036002e009000af
:10086000c15d2000410098002e009000d000900053
:10087000301f2000808f5000050036002e009000b1
:10088000d000900000712200808f500003003600dd
:100890002e00900081572000510098002e009000fb
:1008a000e000900000532700808f500003003600c6
:1008b0002e0090008000eb00610098000080fa009c
:1008c000000006000800fa00004f780011079800a9
:1008d00022079800330798001e009000e10f500097
:1008e00041003a002e00900001fa20000108780033
:1008f0002e00900081382100110098002e009000f9
:1009000001772100210098002e00900081b5210080
:10091000310098002e009000410620004100980010
:100920002e00900041062000510098002e009000fb
:1009300001712200610098002e0090008000eb0001
:10094000710098002e0190006000b8000009980026
:1009500011099800be009000110078000000a0006e
:1009600080087800be009000110078000010a00000
:1009700080087800be009000110078000020a000e0
:1009800080087800be009000110078000030a000c0
:1009900080087800be009000110078000040a000a0
:1009a00080087800be009000110078000050a00080
:1009b00080087800be009000110078000060a00060
:1009c00080087800be009000110078000070a00040
:1009d00080087800be009000110078000080a00020
:1009e00080087800c80037001e407800e14f5000b2
:1009f0002e003a00400f20004dc107008000780013
:100a00002e00900061009800e00e200048c1070011
:100a1000800078002e00900031009800c00e200069
:100a200043c10700800078002e009000210098004c
:100a3000a00e20003ec10700800078002e0090002c
:100a400011009800800e200039c107008000780056
:100a50002e00900001087800000f200034c107002c
:100a6000800078002e00900041009800200f2000a8
:100a70002fc10700800078002e00900051009800e0
:100a8000600f20002ac10700800078002e0090002f
:100a900071009800800f200025c107002e019000f2
:100aa00000099800110998002d0037004028200007
:100ab0001fc10700800078002e00900061009800a0
:100ac000e02720001ac10700800078002e00900067
:100ad00031009800c027200015c107008000780071
:100ae0002e00900021009800a027200010c10700d0
:100af000800078002e0090001100980080272000d0
:100b00000bc10700800078002e00900001087800db
:100b10000028200006c10700800078002e00900009
:100b2000410098002028200001c1070080007800c3
:100b30002e0090005100980060282000fcc00700a3
:100b4000800078002e00900071009800802820001e
:100b5000f7c007002e0190000009980011099800c5
:100b60002e009000e0009000f0f32100808f5000f4
:100b7000050036002e009000e0009000006b23007e
:100b8000808f5000030036002e009000017122007b
:100b9000610098002e009000b00090002e009000a0
:100ba00020009000808f5000060039002e00900039
:100bb000b00090002e00900060009000808f5000e8
:100bc000030036002e00900081b52100310098000e
:100bd0002e009000a00090002e00900010009000c9
:100be000808f5000060039002e009000a000900079
:100bf0002e00900030009000808f500003003600df
:100c00002e00900001772100210098002e00900016
:100c1000900090002e00900010007800808f50000f
:100c2000060039002e009000900090002e009000e9
:100c300020009000808f5000030036002e009000ae
:100c400081382100110098002e009000900078005b
:100c500030062000808f5000060036002e009000e5
:100c6000900078002e00900010009000808f5000bf
:100c7000030036002e00900001fa200001087800e1
:100c80002e009000c0009000803e2000808f500019
:100c9000030036002e00900041062000410098001d
:100ca0002e009000d0009000803e2000808f5000e9
:100cb000030036002e0090004106200051009800ed
:100cc0002e009000f0009000006b2300808f5000f9
:100cd000030036002e0090008000eb0071009800a9
:100ce0002e0090009008900000089000e00f500047
:100cf000e08f580004003d002e0190006000b80015
:100d000000099800110998000080fa000000060010
:100d10000800fa00004f7800110798002207980099
:100d2000330798001e009000e10f500016003a00b3
:100d30002e00900031002000010878002e00900065
:100d40008000eb00110098002e009000017d200033
:100d500031009800be009000110078000000a00053
:100d600080087800be009000110078000010a000fc
:100d700080087800be009000110078000020a000dc
:100d8000800878003d0037001e407800e14f500099
:100d900010003a00c00f200065c0070080007800f6
:100da0002e00900001087800e00f200060c00700ce
:100db000800078002e0090001100980000102000a4
:100dc0005bc00700800078002e0090003100980082
:100dd0000f003700c028200055c0070080007800b1
:100de0002e00900001087800e028200050c0070085
:100df000800078002e00900011009800002920004b
:100e00004bc00700800078002e0090003100980051
:100e10002e00900010007800ea0f5000030036000a
:100e20002e00900031002000010878002e00900074
:100e300010009000fe0f5000030036002e009000be
:100e40008000eb00110098002e009000b000900090
:100e500070252000808f5000050036002e00900085
:100e6000b000900000fa2000808f50000300360090
:100e70002e009000017d2000310098002e0090008f
:100e800031002000510098002e0090004106200003
:100e9000410098002e0090008000eb006100980057
:100ea0002e0090008000eb00710098002e00900052
:100eb0008000eb00210098002e0090008000eb00e5
:100ec000010898000080fa00000006000800fa00ff
:100ed000004f780011079800220798003307980008
:100ee0001e009000e10f50004e003a002e009000ce
:100ef000a1002000010878002e00900011182000a9
:100f0000110098002e009000110020002100980090
:100f10002e00900061002000310098002e0090000b
:100f200051002000410098002e0090001100200088
:100f3000510098002e0090008040eb00414898003e
:100f40002e00900041c6b300514898002e0090003a
:100f5000e1c6b300614898002e00900041062000d1
:100f6000010898002e009000a1c0b3002150980005
:100f7000be009000110078000000a00080087800fa
:100f8000be009000110078000010a00080087800da
:100f9000be009000110078000020a00080087800ba
:100fa000be009000110078000030a000800878009a
:100fb000be009000110078000040a000800878007a
:100fc000be009000110078000050a000800878005a
:100fd000be009000110078000060a000800878003a
:100fe000be009000110078000070a000800878001a
:100ff000be009000110078000080a00080087800fa
:10100000be009000110078000090a00080087800d9
:10101000be0090001100780000a0a00080087800b9
:10102000f60037001e407800e14f500038003a00cb
:1010300040102000bebf0700800078002e00900006
:101040000108780060102000b9bf07008000780018
:101050002e0090001100980080102000b4bf0700ff
:10106000800078002e00900021009800a010200041
:10107000afbf0700800078002e009000310098007c
:10108000c0102000aabf0700800078002e0090004a
:1010900041009800e0102000a5bf07008000780004
:1010a0002e0090005100980000112000a0bf070002
:1010b000804078002e0090004148980020112000c8
:1010c0009bbf0700804078002e0090005148980098
:1010d0004011200096bf0700804078002e0090004d
:1010e000614898006011200091bf070080007800df
:1010f0002e00900001089800801120008cbf07008e
:10110000804078002e009000215098003700370072
:101110004029200086bf0700800078002e00900044
:10112000010878006029200081bf07008000780056
:101130002e00900011009800802920007cbf07003d
:10114000800078002e00900021009800a029200047
:1011500077bf0700800078002e00900031009800d3
:10116000c029200072bf0700800078002e00900088
:1011700041009800e02920006dbf07008000780042
:101180002e00900051009800002a200068bf070040
:10119000804078002e00900041489800202a2000ce
:1011a00063bf0700804078002e00900051489800ef
:1011b000402a20005ebf0700804078002e0090008b
:1011c00061489800602a200059bf0700800078001d
:1011d0002e00900001089800802a200054bf0700cc
:1011e000804078002e009000215098002e00900042
:1011f00010007800e40f5000050034002e0090002d
:101200009000780060182000808f500003003400a8
:101210002e009000a1002000010878002e00900010
:1012200010009000e40f5000050034002e009000e4
:101230009000900060182000808f50000300340060
:101240002e00900011182000110098002e00900030
:10125000200090000000e000050034002e00900007
:10126000a000900040062000808f50000300340052
:101270002e00900011002000210098002e00900008
:10128000300090000000e000050034002e009000c7
:10129000b000900040062000808f50000300340012
:1012a0002e00900061002000310098002e00900078
:1012b000400090000000e000050034002e00900087
:1012c000c000900040062000808f500003003400d2
:1012d0002e00900051002000410098002e00900048
:1012e000500090000000e000050034002e00900047
:1012f000d000900040062000808f50000300340092
:101300002e00900011002000510098002e00900047
:1013100040489000e14f5000070032002e0090003e
:10132000404890000004e000030032002e009000ce
:101330008000eb00210098002e009000d048900023
:1013400090c5b30080cf5000040036002e009000fe
:1013500050489000e64f4000030036002e009000f9
:1013600041c6b300514898002e009000e04890001c
:1013700090c5b30080cf5000040036002e009000ce
:1013800060489000e64f4000030036002e009000b9
:10139000e1c6b300614898002e00900080089000dc
:1013a00090052000808f5000050036002e00900030
:1013b00080089000a00f2000808f500003003600ae
:1013c0002e00900041062000010898002e00900099
:1013d000205090000004e000050032002e00900034
:1013e000a050900040c6b30080cf500003003600ec
:1013f0002e009000a1c0b300215098000080fa0098
:10140000000006000800fa00004f7800110798005d
:1014100022079800330798001e009000e10f50004b
:1014200016003a002e00900001c5b3000148780074
:101430002e009000c1c3b300114098002e00900010
:101440008040eb0021409800be0090001100780021
:101450000000a00080087800be0090001100780015
:101460000010a00080087800be00900011007800f5
:101470000020a000800878003a0037001e40780065
:10148000e14f500010003a00a0112000a8be070054
:10149000804078002e00900001487800c0112000a4
:1014a000a3be0700804078002e00900011409800f5
:1014b000e01120009ebe0700804078002e009000c2
:1014c000214098000f003700a02a200098be070096
:1014d000804078002e00900001487800c02a20004b
:1014e00093be0700804078002e00900011409800c5
:1014f000e02a20008ebe0700804078002e00900079
:10150000214098002e0090009040780040c6b30023
:1015100080cf5000030036002e0090008040eb008a
:10152000014878002e0090009040900040c6b30023
:1015300080cf5000030036002e0090008040eb006a
:10154000114098002e009000a040900040c6b300cb
:1015500080cf5000030036002e0090008040eb004a
:10156000214098000080fa00000006000800fa0000
:10157000004f780011079800220798003307980061
:101580001e009000e10f50003b003a002e0090003a
:1015900081c0b300114098002e0090008040eb0005
:1015a000214098002e00900011c0b30031409800f7
:1015b0002e00900061c0b300414098002e019000c1
:1015c0006000b80030019800410198002e019000a1
:1015d0006000b80050019800610198002e00900052
:1015e0008040eb00614898002e00900041c6b30097
:1015f00011509800be009000110078000000a0007b
:1016000080087800be009000110078000010a00053
:1016100080087800be009000110078000020a00033
:1016200080087800be009000110078000030a00013
:1016300080087800be009000110078000040a000f3
:1016400080087800be009000110078000050a000d3
:1016500080087800be009000110078000060a000b3
:1016600080087800be009000110078000070a00093
:1016700080087800a50037001e407800e14f500038
:1016800024003a002012200029be07008040780084
:101690002e009000114098004012200024be070048
:1016a000804078002e0090002140980060122000b9
:1016b0001fbe0700804078002e0090003140980047
:1016c000801220001abe0700804078002e00900093
:1016d00041409800a012200015be07002e01900086
:1016e00030019800410198000000eb0010be070097
:1016f0002e0190005001980061019800c012200056
:101700000bbe0700804078002e00900061489800d2
:1017100023003700202b200005be07008040780002
:101720002e00900011409800402b200000be0700c2
:10173000804078002e00900021409800602b20000f
:10174000fbbd0700804078002e00900031409800db
:10175000802b2000f6bd0700804078002e0090000e
:1017600041409800a02b2000f1bd07002e01900001
:10177000300198004101980040062000ecbd0700b0
:101780002e0190005001980061019800c02b2000ac
:10179000e7bd0700804078002e0090006148980067
:1017a0002e00900010409000e84f50000f003200d3
:1017b0002e00900010409000e24f50000b003200cd
:1017c0002e00900010409000e14f500007003200c2
:1017d0002e00900010409000e44f500003003200b3
:1017e0002e00900081c0b300114098002e009000a0
:1017f00020409000e34f50000f0032002e00900078
:10180000204090000004e0000b0032002e00900009
:1018100020409000e24f5000070032002e00900060
:1018200020409000e14f5000030032002e00900055
:101830008040eb00214098002e0090003040900046
:10184000e14f5000070032002e0090003040900021
:101850000004e000030032002e0090008040eb0006
:10186000314098002e009000404090000004e000bd
:10187000040032002e00900040409000ea4f5000db
:10188000030036002e00900061c0b3004140980074
:101890002e009000c000900030009000e00f50003b
:1018a000e08f580004003d002e0190006000b80059
:1018b00030019800410198002e009000e000900057
:1018c00050009000e00f5000e08f580004003d00f1
:1018d0002e0190006000b80030019800410198008e
:1018e0002e00900060489000e14f50000700320049
:1018f0002e009000604890000004e00003003200d9
:101900002e0090008040eb00614898002e0090006f
:101910008040eb00014878002e0090008040eb00f2
:10192000714898002e0090008040eb000150980014
:101930002e0090008040eb00215098000080fa00bb
:10194000000006000000fa00e20d2100e10621007f
:1019500020c0b3001a000700c20f21002107210098
:1019600020c0b30094000700e211210061072100ac
:1019700020c0b3002101070042142100a10721006b
:1019800020c0b300d6010700a2162100e107210004
:1019900020c0b300150207002218210021082100f1
:1019a00020c0b300f6020700a2192100610821003f
:1019b00020c0b300380307000080fa0000000600d2
:1019c0001200fa00404f980071079800020f98002b
:1019d0004e489000e14f50000d003a00e00c20000e
:1019e000000f7800000d200010079800200d200047
:1019f00020079800600d200030079800400d20005f
:101a000040079800800d2000500798000c00370018
:101a1000e0252000000f7800002620001007980025
:101a2000202620002007980060262000300798001c
:101a3000402620004007980080262000500798008c
:101a40007e00900010007800610060000000e0005f
:101a5000090032000e0890001000be000001be0018
:101a60001e0078004bbd0700fe00900011007800ba
:101a70000000a100800878007e009000100078002f
:101a8000620060000000e0000a0032000e089000d2
:101a9000b0009000200090000001be001e009000e9
:101aa0003cbd0700fe009000110078000010a1006e
:101ab000800878007e0090001000780064006000cc
:101ac0000000e0000a0032000e089000d0009000f4
:101ad000400090000001be002e0090002dbd0700c8
:101ae000fe009000110078000020a100800878001e
:101af0007e00900010007800680060000000e000a8
:101b00000a0032000e089000600090008000eb0098
:101b10000001be003e0090001ebd0700fe009000c8
:101b2000110078000030a100800878007e0090004d
:101b300010007800700060000000e0000b00320030
:101b40000e089000604890000080fb008000eb00d1
:101b50000001be004e0090000ebd0700fe00900088
:101b6000110078000040a100800878007e009000fd
:101b70009000780000022000008060000000e0007b
:101b80000b0032000e089000704890000080fb00af
:101b90008000eb000001be005e009000fdbc07006d
:101ba000fe009000110078000050a100800878002d
:101bb0000080fa00000006001400fa00604f980050
:101bc000010f9800120f98006e489000e14f5000ee
:101bd0000f003a00a00d2000000f7800c00d20007b
:101be00010079800e00d200020079800000e20004c
:101bf00030079800200e200040079800400e20007b
:101c000050079800600e2000600798000e00370013
:101c1000a0262000000f7800c026200010079800a2
:101c2000e0262000200798000027200030079800b9
:101c300020272000400798004027200050079800e8
:101c400060272000600798000e08900010007800c0
:101c5000610060000000e0000a0032001e089000f1
:101c6000100078008000eb000001be001e0078002c
:101c7000c8bc07008e089000110078000000a10089
:101c8000800878000e089000100078006200600064
:101c90000000e0000a0032001e08900010009000d2
:101ca0008000eb000001be001e009000b9bc0700e0
:101cb0008e089000110078000010a10080087800c4
:101cc0000e08900010007800640060000000e00042
:101cd0000a0032001e089000200090008000eb00f7
:101ce0000001be002e009000aabc07008e089000e4
:101cf000110078000020a100800878000e089000f4
:101d000010007800680060000000e0000a00320067
:101d10001e089000300090008000eb000001be0023
:101d20003e0090009bbc07008e08900011007800d8
:101d30000030a100800878000e08900010007800a4
:101d4000700060000000e0000a0032001e089000f1
:101d5000400090008000eb000001be004e009000ab
:101d60008cbc07008e089000110078000040a10094
:101d7000800878000e089000900078000002200093
:101d8000008060000000e0000a0032001e089000a1
:101d9000500090008000eb000001be005e0090004b
:101da0007cbc07008e089000110078000050a10054
:101db000800878000e089000900078000004200051
:101dc000008060000000e0000a0032001e08900061
:101dd000600090008000eb000001be006e009000eb
:101de0006cbc07008e089000110078000060a10014
:101df000800878000080fa00000006001800fa0051
:101e000020579800210f9800320f98002e50900014
:101e1000e14f500013003a00800e2000000f7800c0
:101e2000a00e200010079800c00e20002007980088
:101e3000e00e200030079800000f200040079800b7
:101e4000200f200050079800400f200060079800e6
:101e5000600f200070079800800f2000000f98008e
:101e60001200370080272000000f7800a0272000f4
:101e700010079800c027200020079800e0272000c6
:101e800030079800002820004007980020282000f4
:101e90005007980040282000600798006028200024
:101ea0007007980080282000000f98002e089000ee
:101eb00010007800610060000000e0000a003200bd
:101ec0003e089000100078008000eb000001be008a
:101ed0001e0078002fbc0700ae08900011007800ab
:101ee0000000a100800878002e0890001000780003
:101ef000620060000000e0000a0032003e0890002e
:101f0000100090008000eb000001be001e00900059
:101f100020bc0700ae089000110078000010a1005e
:101f2000800878002e08900010007800640060009f
:101f30000000e0000a0032003e08900020009000ff
:101f40008000eb000001be002e00900011bc0700d5
:101f5000ae089000110078000020a10080087800f1
:101f60002e08900010007800680060000000e0007b
:101f70000a0032003e089000300090008000eb0024
:101f80000001be003e00900002bc0700ae089000b9
:101f9000110078000030a100800878002e08900021
:101fa00010007800700060000000e0000a003200bd
:101fb0003e089000400090008000eb000001be0051
:101fc0004e009000f3bb0700ae08900011007800af
:101fd0000040a100800878002e0890009000780052
:101fe00000022000008060000000e0000a003200d3
:101ff0003e089000500090008000eb000001be0001
:102000005e009000e3bb0700ae089000110078006e
:102010000050a100800878002e0890009000780001
:1020200000042000008060000000e0000a00320090
:102030003e089000600090008000eb000001be00b0
:102040006e009000d3bb0700ae089000110078002e
:102050000060a100800878002e08900090007800b1
:1020600000082000008060000000e0000a0032004c
:102070003e089000700090008000eb000001be0060
:102080007e009000c3bb0700ae08900011007800ee
:102090000070a100800878002e0890009000780061
:1020a00000102000008060000000e0000a00320004
:1020b0003e08900090089000000890000001be00cb
:1020c0000e089000b3bb0700ae0890001100780026
:1020d0000080a100800878000080fa00000006005f
:1020e0000c00fa00604798004107980052079800da
:1020f0006e409000e14f500007003a00c00f2000f2
:10210000000f7800e00f200010079800001020005a
:102110002007980006003700c0282000000f780034
:10212000e0282000100798000029200020079800d0
:102130004e00900010007800610060000000e00098
:102140000a0032005e009000100078008000eb0072
:102150000001be001e0078008ebb0700ce0090007c
:10216000110078000000a100800878004e00900067
:1021700010007800620060000000e0000a003200f9
:102180005e009000100090008000eb000001be0097
:102190001e0090007fbb0700ce0090001100780069
:1021a0000010a100800878004e0090001000780018
:1021b000640060000000e0000a0032005e00900051
:1021c000300090008000eb000001be002e00900067
:1021d00070bb0700ce009000110078000020a10025
:1021e000800878000080fa00000006001c00fa0059
:1021f00060579800410f9800520f98006e50900061
:10220000e14f500017003a0040102000000f780006
:102210006010200010079800801020002007980010
:10222000a010200030079800c01020004007980040
:10223000e01020005007980000112000600798006f
:10224000201120007007980040112000000f980016
:1022500060112000100f980080112000200f9800be
:102260001600370040292000000f78006029200068
:10227000100798008029200020079800a02920003e
:1022800030079800c029200040079800e02920006e
:1022900050079800002a200060079800202a20009c
:1022a00070079800402a2000000f9800602a200044
:1022b000100f9800802a2000200f98004e089000f0
:1022c00010007800610060000000e0000a003200a9
:1022d0005e08900010007800cf80de000001be0094
:1022e0001e0078002bbb0700ce089000110078007c
:1022f0000000a100800878004e08900010007800cf
:10230000620060000000e0000a0032005e089000f9
:1023100010009000cf80de000001be001e00900083
:102320001cbb0700ce089000110078000010a1002f
:10233000800878004e08900010007800640060006b
:102340000000e0000a0032005e08900020009000cb
:10235000cf80de000001be002e0090000dbb070004
:10236000ce089000110078000020a10080087800bd
:102370004e08900010007800680060000000e00047
:102380000a0032005e08900030009000cf80de002e
:102390000001be003e009000feba0700ce0890008b
:1023a000110078000030a100800878004e089000ed
:1023b00010007800700060000000e0000a003200a9
:1023c0005e08900040009000cf80de000001be005b
:1023d0004e009000efba0700ce0890001100780080
:1023e0000040a100800878004e089000900078001e
:1023f00000022000008060000000e0000a003200bf
:102400005e08900050009000cf80de000001be000a
:102410005e009000dfba0700ce089000110078003f
:102420000050a100800878004e08900090007800cd
:1024300000042000008060000000e0000b0032007b
:102440005e089000404890000080fb008000eb0098
:102450000001be006e009000ceba0700ce089000ca
:10246000110078000060a100800878004e089000fc
:102470009000780000082000008060000000e0006c
:102480000b0032005e089000504890000080fb0076
:102490008000eb000001be007e009000bdba070086
:1024a000ce089000110078000070a100800878002c
:1024b0004e0890009000780000102000008060001e
:1024c0000000e0000b0032005e08900060489000c1
:1024d0000080fb008000eb000001be000e089000b1
:1024e000acba0700ce089000110078000080a1006f
:1024f000800878004e0890009000780000202000ae
:10250000008060000000e0000a0032005e089000d9
:10251000000890008000eb000001be001e08900043
:102520009cba0700ce089000110078000090a1002e
:10253000800878004e08900090007800004020004d
:10254000008060000000e0000b0032005e08900098
:10255000205090000080fb008000eb000001be00d6
:102560002e0890008bba0700ce089000110078006a
:1025700000a0a100800878000080fa00000006009a
:102580000c00fa0060479800410798005207980035
:102590006e409000e14f500007003a00a01120006b
:1025a000000f7800c011200010079800e0112000f3
:1025b0002007980006003700a02a2000000f7800ae
:1025c000c02a200010079800e02a20002007980069
:1025d0004e00900010007800610060000000e000f4
:1025e0000b0032005e009000104078000080fb007d
:1025f0008000eb000001be001e00780065ba0700f5
:10260000ce009000110078000000a1008008780042
:102610004e00900010007800620060000000e000b2
:102620000b0032005e009000104090000080fb0024
:102630008000eb000001be001e00900055ba0700ac
:10264000ce009000110078000010a10080087800f2
:102650004e00900010007800640060000000e00070
:102660000b0032005e009000204090000080fb00d4
:102670008000eb000001be002e00900045ba07006c
:10268000ce009000110078000020a10080087800a2
:102690000080fa00000006001600fa0000579800bb
:1026a000110f9800220f98000e509000e14f50003b
:1026b00011003a0020122000000f78004012200084
:1026c0001007980060122000200798008012200058
:1026d00030079800a0122000400798000000eb008f
:1026e00050079800c012200060079800e0122000f8
:1026f0007007980010003700202b2000000f780092
:10270000402b200010079800602b20002007980025
:10271000802b200030079800a02b20004007980055
:102720004006200050079800c02b2000600798004a
:10273000e02b2000700798001e0890001000780021
:10274000610060000000e0000b0032002e089000e5
:10275000104090000080fb008000eb000001be00f4
:102760001e0078000bba07009e0890001100780048
:102770000000a100800878001e089000100078007a
:10278000620060000000e0000b0032002e089000a4
:10279000204090000080fb008000eb000001be00a4
:1027a0001e009000fbb907009e0890001100780001
:1027b0000010a100800878001e089000100078002a
:1027c000640060000000e0000b0032002e08900062
:1027d000304090000080fb008000eb000001be0054
:1027e0002e009000ebb907009e08900011007800c1
:1027f0000020a100800878001e08900010007800da
:10280000680060000000e0000b0032002e0890001d
:10281000404090000080fb008000eb000001be0003
:102820003e009000dbb907009e0890001100780080
:102830000030a100800878001e0890001000780089
:10284000700060000000e0000a0032002e089000d6
:10285000c0009000300090000001be004e009000cb
:10286000ccb907009e089000110078000040a1003c
:10287000800878001e089000900078000002200078
:10288000008060000000e0000a0032002e08900086
:10289000e0009000500090000001be005e0090003b
:1028a000bcb907009e089000110078000050a100fc
:1028b000800878001e089000900078000004200036
:1028c000008060000000e0000b0032002e08900045
:1028d000604890000080fb008000eb000001be001b
:1028e0006e009000abb907009e08900011007800c0
:1028f0000060a100800878001e0890009000780019
:1029000000082000008060000000e0000b003200a2
:102910002e089000105090000080fb008000eb001b
:102920000001be007e0090009ab907009e0890004a
:10293000110078000070a100800878000080fa0083
:10294000000006000000fa00f08980000000e000ae
:1029500003003200f08980000000e900f08988005f
:10296000808a80000000e00003003200808a80003e
:102970000000e900808a8800908a80000000e00062
:1029800003003200908a80000000e900908a8800ed
:10299000a08a80000000e00003003200a08a8000ce
:1029a0000000e900a08a88000080fa00000006000c
:1029b0000000fa00d019210010407800e14f5000cb
:1029c00011003a00708480000000e0000d003a0021
:1029d00090d0bf000004e00004003a0080bb20005b
:1029e000908a880010c0b30090f0b700908a8000f1
:1029f0000000e00004003a0010002000708488000d
:102a0000010037009070ef000080fa00000006001f
:102a10000000fa000080fa00000006000600fa003c
:102a2000100280004500de00674060000080fb006f
:102a3000000f78009102800011079800ff3ffc0012
:102a4000100280000050a0000060a0000070a000f4
:102a5000100288001e00900090028800000088008c
:102a6000381607009102800021079800ff3ffc0004
:102a70001e00780000407800674060000080fb0086
:102a8000670060004500dd0012028000f1f12f00b8
:102a90008100610001007000100288002e0090008b
:102aa00090028800000088000080fa000000060004
:102ab0000c00fa00004f9800114f9800224f980028
:102ac000a002800010079800028020000310200060
:102ad0000e4890008080fb00008021008088b900b3
:102ae0008000eb0002014000838148001e489000f6
:102af0000080fb004b00dd008000eb000200400086
:102b0000838048004008de0000007800a0028800b2
:102b10000080200001102000800078001e489000f6
:102b20000081fb000e4890000080fb00e300b9002c
:102b3000000041004b00dd000080400020079800ad
:102b40002e009000fb150700604798002e4890006b
:102b50000080fb00f30f50000a003200f40f500019
:102b60000e003200f20f500012003a006e4090004a
:102b70000080fb00640060004280de00004f7800af
:102b80000f0037006e4090000080fb00680060007e
:102b90004380de00004f7800090037006e4090004f
:102ba0000080fb00700060004480de00004f780071
:102bb000030037000040eb00004f780000000000e9
:102bc0001e009000a00288001e80fb000080fa001a
:102bd000000006000600fa004047980051479800a0
:102be000a0028000000f7800028020000310200067
:102bf0004e4090008080fb00008021008088b9005a
:102c00008000eb0002014000838148005e4090009c
:102c10000080fb004b00dd008000eb000200400064
:102c2000838048004008de0000007800a002880091
:102c3000300024004039880000802000011020006e
:102c4000800078005e4090000081fb004e409000c4
:102c50000080fb00e300b900000041004b00dd00f4
:102c600000804000100798009e0090001e00900019
:102c7000db15070069ff07001e007800a00288002e
:102c80000080fa00000006000c00fa00204f9800b7
:102c90000000eb00000f7800a002800030079800d1
:102ca0000000eb0010079800030037001e009000a2
:102cb0000000e800100798001e009000e20f50008e
:102cc00008003c001e0090000040780032c1b300b4
:102cd000804078002e48900075ff0700e10f5000fb
:102ce000f2ff320002802000031020002e489000e6
:102cf0008080fb00008021008088b9008000eb000c
:102d000002014000838148001e0090004b00dd005e
:102d10008000eb0002004000838048004008de0095
:102d200000007800a0028800008020000110200030
:102d3000800078002e4890000080fb00e301b9007d
:102d40001e009000000041004b00dd0000804000ac
:102d5000200798001e8fe8002e0090000080e800f9
:102d6000200798002e00900072150700004f980071
:102d7000f07f20009e007800808f500003003c0010
:102d80000e489000e14f4000f2ff3a000080200022
:102d90009e007800808f500002003a000000eb0097
:102da000000f78003e009000a00288001e0078000e
:102db0000080fa00000006001400fa00881f780066
:102dc00020579800a0028000600798000000eb00e8
:102dd000000f7800010037001e0fe8001e00780089
:102de000e20f500008003c001e0078000040780010
:102df00032c1b300804078002e5090002cff0700b5
:102e0000e10f5000f4ff32001e007800e30f500085
:102e100005003a006e009000a0028800b270a80081
:102e200030002000590137001e00e800100798000c
:102e30001e009000e30f500013003a000000eb006a
:102e400010079800110037001e0090000000e800f5
:102e5000100798001e009000e30f500002003a0097
:102e60000000eb00100798001e0090009e0f50001d
:102e700006003a006e009000a0028800b230a80060
:102e80001000200041013700000000001e009000eb
:102e90000040780042c1b300804078002e5090007e
:102ea00003ff07000000e000e7ff3200028020007f
:102eb000031020002e5090008080fb000080210035
:102ec0008088b9008000eb00020140008381480047
:102ed0001e0090004b00dd008000eb00020040006f
:102ee000838048004008de0000007800a0028800cf
:102ef0000080200001102000800078002e509000fb
:102f00000080fb00e301b9001e00900000004100ba
:102f10004b00dd0000804000200798002e509000fc
:102f200059ff07000000e00001003200b250a80085
:102f3000210b210091407800614f9800b210a90048
:102f40000000eb0030079800200024004039880082
:102f5000ae0090000080eb0021150700ae0090004d
:102f6000f00f2000041507002e0090000080e800fc
:102f7000200798000040eb00004f98003e009000b2
:102f80000000e80030079800340037002e50900011
:102f90008080fb00f00f20008088b900800078005e
:102fa0000e4890000080fb0000804000ad0107004b
:102fb0005007980090858000610060000000e000ec
:102fc00002003200b210a9000d0037005e00900030
:102fd000ae009000021507000e4890000080fb0034
:102fe000ae009000e41407002e0090000080e8007e
:102ff000200798003e0090000000e800300798008d
:103000000e4890000040e800004f98000c00370088
:10301000ae0090000080eb00f1140700ae009000bd
:10302000f00f2000d41407002e0090000080e8006c
:10303000200798003e0090000000e800300798004c
:103040000e489000e14f400004003a00be0090009e
:10305000f0072000808f5000edff34000e489000f4
:10306000e14f400004003200be009000f007200055
:10307000808f5000c5ff340068fe07000000eb00a1
:10308000300798000e489000e14f4000f3ff3a00ef
:10309000ee489000220b21000149780002802000b8
:1030a000031020002e5090008080fb000080210043
:1030b0008088b9008000eb00020140008381480055
:1030c0001e0090004b00dd008000eb00020040007d
:1030d000838048004008de0000007800a0028800dd
:1030e0000080200001102000800078002e50900009
:1030f0000080fb00e301b9001e00900000004100c9
:103100004b00dd00008040000080e80020079800b0
:103110002e009000ae0090008100e800210798008a
:1031200084140700004f98002e009000ae0090001d
:103130008100e800210798008014070050079800dc
:103140001d0037002e5090008080fb00f00f200003
:103150008088b900800078000e4890000080fb0055
:10316000008040003f010700de009000810f50000a
:10317000050032006e009000a0028800b2f0a800a6
:1031800070002000810037002e009000ae009000fb
:103190008100e8002107980066140700004f98009e
:1031a0002e009000ae0090008100e80021079800fa
:1031b00062140700500798000e489000e14f40004d
:1031c000e0ff3a000080200001102000800078001d
:1031d0002e5090000080fb00e301b9001e00780033
:1031e000000041004b00dd0000804000000f98000f
:1031f0000080200001102000800078002e509000f8
:103200000080fb00e301b9001e00900000004100b7
:103210004b00dd0000804000200798000280200065
:10322000031020002e5090008080fb0000802100c1
:103230008088b9008000eb000201400083814800d3
:103240001e0078004b00dd008000eb000200400013
:10325000838048004008de0000007800a00288005b
:103260000e08900035140700500798000e089000d3
:1032700030140700004f98001e0090000000e0008e
:1032800003003a005e0090000000e800500798003c
:103290005e009000e30f500005003600b230a80039
:1032a0008e489000f0ceb30000c06000004f980040
:1032b00002802000031020002e5090008080fb0030
:1032c000008021008088b9008000eb0002014000ee
:1032d000838148001e0090004b00dd008000eb0061
:1032e00002004000838048004008de0000007800b3
:1032f000a00288000e4890000080fb00ae00900005
:103300001d1407005e009000ae009000341407000a
:103310001000240040398800c0fd07000e489000ce
:103320000084fb002e00900002140700800f540060
:1033300006003a002e00900000140700800078007c
:103340005e009000808f5000050032006e009000fb
:10335000a0028800b2f0a800700020000b00370027
:103360001e00780000407800804078002e509000c9
:1033700018fe07006e009000a00288009085800073
:103380000000d100614060000080fb004f04780025
:103390000080fa00000006000c00fa00a102800084
:1033a0003107980000802000011020004008de0056
:1033b00000007800a00288000040eb004047980021
:1033c000a20037000040eb00004f78000040eb0007
:1033d000104798000000eb00400798000000eb0049
:1033e00010079800030037001e0090000000e8005e
:1033f000100798001e009000e20f500008003e00e9
:103400001e0090000040780042c1b3008040780068
:103410004e409000a6fd07000000e000f2ff3200e1
:103420001e009000e30f500005003a00be0090001f
:10343000a1028800b230a80010c0b3008700370096
:103440000000eb00100798000c0037001e009000f1
:103450000040780032c1b300804078004e409000b8
:1034600093fd07000000e00001003a001e4fe80055
:103470001e0090000000e800100798001e00900059
:10348000e20f5000f1ff36001e4078000004e0001b
:1034900026003a008040eb004e409000cdfd070032
:1034a00002802000031020004e4090008080fb002e
:1034b000008021008088b9008000eb0002004000fd
:1034c000838048004008de0000007800a0028800e9
:1034d0000080200001102000800078004e40900005
:1034e0000081fb00008021008090b9000080400036
:1034f0005007980010002400403988005e009000ba
:10350000800078000000eb00b51307005e0090001b
:1035100080007800300f2000971307003ffd070060
:10352000be009000a1028800450037001e407800d0
:10353000e14f500003003a00be009000a102880055
:103540003f0037001e407800e24f500037003a003d
:1035500032c1b30021c0b3004e40900054fd0700bb
:103560000000e0000b003a0032c1b3008040eb00e5
:103570004e4090004efd07000000e00005003a00bc
:1035800020002000100798000040eb001047980032
:103590001a0037000000eb00100798000300370006
:1035a0001e0090000000e800100798001e00900028
:1035b0000040780032c1b300804078004e40900057
:1035c0003bfd0700e10f500003003a001e00900091
:1035d000e20f5000f2ff36001e009000004078001d
:1035e0000040e800104798001e409000e34f500054
:1035f00002003a000040eb00104798009e40900007
:103600004e40900073fd07004e4090009efd070065
:103610000000e00002003a004e409000e6fd070086
:10362000be009000a102880005003700be00900097
:10363000a1028800b2d0a80060c0b3000700370024
:103640004e4090000040e800404798004e409000f7
:10365000e44f50005bff36000040eb000080fa00b2
:10366000000006000e00fa0060079800ee009000cf
:10367000a04f2000808f500003003600b2b0a80099
:103680000080eb0065003700ee009000f00f200096
:1036900000017800110009008280d800604798007e
:1036a000a1028000410798000000eb00000f7800a5
:1036b000010037001e0fe8001e007800e20f5000e6
:1036c00008003e001e0078000040780032c1b300c0
:1036d000804078006e409000f5fc0700e10f50003c
:1036e000f4ff32001e007800e30f500005003a009e
:1036f0004e019000a2028800b2d0a8000080eb002a
:103700004600370002802000031020006e40900029
:103710008080fb00008021008088b9008000eb00e1
:1037200002014000838148001e0078004b00dd004c
:103730008000eb0002004000838048004008de006b
:1037400000007800a0028800008020000110200006
:10375000800078006e4090000080fb00e300b9001c
:103760001e0040000000e8004b00dd00008040002b
:103770000080e90010079800004020002007980012
:103780001e009000eb120700500798001e009000ea
:103790000080e900100798002e0090000000e9006a
:1037a000200798002e0090000000e0000a00320080
:1037b000ee009000f00f20000001780011000900d9
:1037c0008280d8008000fd00800078005e009000bc
:1037d000808f5000eaff3a002e0090000000e000c9
:1037e00005003a00b210a800ce009000a1028800a7
:1037f0000080eb00090037001e0090000080e80008
:10380000100798001e009000cc1207005007980087
:103810004e019000a20288005e0090000080fa0035
:10382000000006001400fa0070079800010f9800cd
:103830008e089000a04f2000808f500003003600bb
:10384000b2b0a80050c0b300b10037008e0890009d
:10385000f00f200000017800110009008280d800dc
:1038600010079800a0028000200798001000240094
:10387000403988000000eb00000f7800010037009d
:103880001e0fe8001e007800e20f500008003c0008
:103890001e007800804078001e00900000407800f4
:1038a00032c1b30082fc0700e10f5000f4ff320088
:1038b0001e007800e30f500005003a002e00900033
:1038c000a0028800b2d0a80060c0b300900037000a
:1038d00002802000031020009e0090000080210044
:1038e0008088b9008000eb0002014000838148001d
:1038f0001e0078004b00dd008000eb00020040005d
:10390000838048004008de0000007800a0028800a4
:103910000080200001102000800078001e00900030
:10392000e301b9001e007800000041004b00dd00fb
:103930000080400030079800230b2100934178005d
:10394000034f98000e08900046ff0700fe0090000d
:10395000810f50000b003a009085800061006000ec
:103960000000e00007003a002e009000a00288004e
:103970000e499000210b2100824878000040eb00a6
:10398000630037008e489000230b210081497800a6
:103990001e00900000407800bbfc07005007980014
:1039a0005e0090000000e00005003a002e0090004c
:1039b000a0028800b290a80040c0b30054003700b5
:1039c000be0090005e00900000804000300798002c
:1039d0007e009000be009000811207008e089000cb
:1039e000f00f200000017800110009008280d8004b
:1039f0008000fd00be0090005f12070007fc07007a
:103a000000000000000000003e0090004b12070084
:103a100000407800404f98004e4890008080fb00a6
:103a20007e019000f00f200000006100808f5000a8
:103a3000050032002e009000a0028800b2f0a8001d
:103a400070c0b300320037003e009000391207000a
:103a500000407800404f98004e4890000080fb00e6
:103a6000100f98000e099000f00f200080017800e0
:103a7000110009000381d8008000fd009e0890001d
:103a8000808f5000050032002e009000a0028800b8
:103a9000b2f0a80070c0b3001d0037003e009000d7
:103aa0000000e800300798003e0090002312070055
:103ab0004800de0000407800404f98004e489000db
:103ac0008080fb007e0090004800de00808f500068
:103ad000050032002e009000a0028800b2f0a8007d
:103ae00070c0b3000a003700de009000e07f2000c5
:103af000808f500003003a001e00900000407800c4
:103b0000adfc07002e009000a00288000040eb00f2
:103b10000080fa00000006000000fa00e0342100f6
:103b20008040eb0001487800b470ef000080fa009c
:103b3000000006000400fa00100798000040eb00a7
:103b4000004f7800090037001e80fb009e009000a7
:103b5000008040009e80fb00023321008100410074
:103b600091407800014878001e4fe80000332100a2
:103b7000104078009e4f5000f3ff31000080fa00a3
:103b8000000006000000fa00b4d0bf000080fa0078
:103b9000000006000000fa00b470ef000080fa0098
:103ba000000006000000fa000033210091c0b300bd
:103bb000014878001033210041c1b300014878006a
:103bc0002033210011c5b3000148780030332100b3
:103bd00081c0b30001487800403321008040eb00f1
:103be000014878005033210011c0b300014878002b
:103bf0006033210021c0b3000148780070332100f8
:103c000031c0b300014878008033210011c0b300f7
:103c100001487800103321009040780020332100c3
:103c20001040780080c068003033210010407800d8
:103c300080c06800403321001040780080c06800d8
:103c4000503321001040780080c0680060332100ac
:103c50001040780080c06800703321001040780068
:103c600080c06800803321001040780080c0680068
:103c7000903321000148780010c0b300b4f0b700c1
:103c80000080fa00000006000000fa000033210066
:103c900071c0b30001487800c0372100904078001f
:103ca0001033210001487800d0372100904078007f
:103cb0002033210001487800e0372100904078004f
:103cc000303321000148780000382100904078000e
:103cd00040332100014878001038210090407800de
:103ce00050332100014878002038210090407800ae
:103cf00060332100014878001033210090407800a3
:103d0000203321001040780080c06800303321004b
:103d10001040780080c068004033210010407800d7
:103d200080c06800503321001040780080c06800d7
:103d3000603321001040780080c06800703321009b
:103d40000148780010c0b300b4f0b7000080fa005a
:103d5000000006000000fa000033210031c0b3006b
:103d600001487800761007004800de0080407800a7
:103d7000103321000148780071100700804078005e
:103d80002033210001487800103321009040780052
:103d9000203321001040780080c0680030332100bb
:103da0000148780010c0b300b4f0b7000080fa00fa
:103db000000006000400fa00308680004186800082
:103dc000008fbe000033210051c0b30001487800cd
:103dd0001e00be004808de0080407800103321003d
:103de0000148780000002000f10f20001e01be00f5
:103df0000202780003017800800178000100780059
:103e000003026200000061008000eb00c000dd00e2
:103e1000000020000001be006120b8000001710018
:103e2000818171004018de00010020008040780090
:103e3000203321000148780000f02f00010020000d
:103e40001e01be00020278000301780080017800a4
:103e50000100780003026200000061008000eb00b6
:103e6000c000dd00000020000001be006120b8009d
:103e70000001710081817100481add004810de00e8
:103e800000007200c818de00804078003033210046
:103e9000014878001e0078008040780040332100ff
:103ea0000148780010332100904078002033210031
:103eb0001040780080c06800303321001040780046
:103ec00080c06800403321001040780080c0680046
:103ed000503321000148780010c0b300b4f0b7009f
:103ee0000080fa00000006000400fa00108680003e
:103ef00021868000008fbe000033210051c0b30036
:103f0000014878001e00be004808de0080407800ae
:103f1000103321000148780000002000f10f20003c
:103f20001e01be00020278000301780080017800c3
:103f30000100780003026200000061008000eb00d5
:103f4000c000dd00000020000001be006120b800bc
:103f500000017100818171004018de000100200025
:103f600080407800203321000148780000f02f00c5
:103f7000010020001e01be0002027800030178004b
:103f800080017800010078000302620000006100f7
:103f90008000eb00c000dd00000020000001be003a
:103fa0006120b8000001710081817100481add00b4
:103fb0004810de0000007200c818de008040780063
:103fc00030332100014878001e00780080407800de
:103fd00040332100014878001033210090407800e0
:103fe000203321001040780080c068003033210069
:103ff0001040780080c068004033210010407800f5
:1040000080c06800503321000148780010c0b30020
:10401000b4f0b7000080fa00000006000000fa00cb
:104020000033210031c0b30001487800220e0700a0
:104030004800de00804078001033210001487800fd
:104040001d0e0700804078002033210001487800d1
:104050001033210090407800203321001040780078
:1040600080c06800303321000148780010c0b300e0
:10407000b4f0b7000080fa00000006000400fa0067
:104080008000210010007800cf80de00008fbe008d
:104090000033210051c0b300014878001e00be006b
:1040a0004808de0080407800103321000148780085
:1040b00000002000f10f20001e01be000202780067
:1040c000030178008001780001007800030262009b
:1040d000000061008000eb00c000dd000000200057
:1040e0000001be006120b8000001710081817100f3
:1040f0004018de00010020008040780020332100bd
:104100000148780000f02f00010020001e01be00d1
:104110000202780003017800800178000100780035
:1041200003026200000061008000eb00c000dd00bf
:10413000000020000001be006120b80000017100f5
:1041400081817100481add004810de000000720015
:10415000c818de0080407800303321000148780024
:104160001e0078008040780040332100014878002c
:104170001033210090407800203321001040780057
:1041800080c06800303321001040780080c0680093
:10419000403321001040780080c068005033210077
:1041a0000148780010c0b300b4f0b7000080fa00f6
:1041b000000006000400fa0000332100f1c0b30043
:1041c00001487800bc0d07008000eb00008fbe00a6
:1041d0001e00be004809dd004800de00000071003e
:1041e000c808de00804078001033210001487800c4
:1041f0001e007800804078002033210001487800bc
:10420000800221001001be0000242400f1002000e3
:104210000200400083804800008fbe001e00be00e8
:104220004808de00804078003033210001487800e3
:1042300000002000f10f20001e01be0002027800e5
:104240000301780080017800010078000302620019
:10425000000061008000eb00c000dd0000002000d5
:104260000001be006120b800000171008181710071
:104270004018de000100200080407800403321001b
:104280000148780000f02f00010020001e01be0050
:1042900002027800030178008001780001007800b4
:1042a00003026200000061008000eb00c000dd003e
:1042b000000020000001be006120b8000001710074
:1042c00081817100481add004810de000000720094
:1042d000c818de0080407800503321000148780083
:1042e0001e0078008040780060332100014878008b
:1042f0008002210020019000b001900000242400e1
:10430000f10020000200400083804800008fbe00c2
:104310001e00be004808de00804078007033210097
:104320000148780000002000f10f20001e01be00af
:104330000202780003017800800178000100780013
:1043400003026200000061008000eb00c000dd009d
:10435000000020000001be006120b80000017100d3
:10436000818171004018de0001002000804078004b
:10437000803321000148780000f02f000100200068
:104380001e01be000202780003017800800178005f
:104390000100780003026200000061008000eb0071
:1043a000c000dd00000020000001be006120b80058
:1043b0000001710081817100481add004810de00a3
:1043c00000007200c818de008040780090332100a1
:1043d000014878001e00780080407800a03321005a
:1043e00001487800800021009000900000f4210036
:1043f00000804000cf80de00008fbe001e00be00a7
:104400004808de0080407800b03321000148780081
:1044100000002000f10f20001e01be000202780003
:104420000301780080017800010078000302620037
:10443000000061008000eb00c000dd0000002000f3
:104440000001be006120b80000017100818171008f
:104450004018de000100200080407800c0332100b9
:104460000148780000f02f00010020001e01be006e
:1044700002027800030178008001780001007800d2
:1044800003026200000061008000eb00c000dd005c
:10449000000020000001be006120b8000001710092
:1044a00081817100481add004810de0000007200b2
:1044b000c818de0080407800d03321000148780021
:1044c0001e00780080407800e03321000148780029
:1044d00010332100904078002033210010407800f4
:1044e00080c06800303321001040780080c0680030
:1044f000403321001040780080c068005033210014
:104500001040780080c068006033210010407800bf
:1045100080c06800703321001040780080c06800bf
:10452000803321001040780080c068009033210063
:104530001040780080c06800a0332100104078004f
:1045400080c06800b03321001040780080c068004f
:10455000c03321001040780080c06800d0332100b3
:104560001040780080c06800e033210010407800df
:1045700080c06800f03321000148780010c0b3000b
:10458000b4f0b7000080fa00000006000200fa0054
:10459000004f78001e80fb00e40f50003f00320007
:1045a000e40f50000c003c00e10f50001d003200f1
:1045b000e10f500003003c000000e0000f0032005b
:1045c0006c003700e20f500020003200e30f500073
:1045d0002800320067003700e60f50004300320029
:1045e000e60f500037003500e70f50004c00320056
:1045f000e80f5000550032005e0037000000210037
:1046000010007800306488008e2cef00a62cef009c
:10461000ae2cef00c62cef0000fa20007066880078
:104620005b003700862cef008e2cef00000021008d
:104630001000780030658800ae2cef00c62cef002b
:1046400000fa20007066880051003700862cef00c9
:1046500000fa20007064880000002100100078003b
:1046600030658800ae2cef00c62cef00ce2cef009a
:1046700047003700862cef0000fa200070648800a5
:10468000a62cef00ae2cef000000210010007800f7
:1046900030668800ce2cef003d003700862cef00fe
:1046a0008e2cef00a62cef0000fa20007065880029
:1046b000000021001000780030668800ce2cef004a
:1046c00033003700000021001000780030648800bb
:1046d0008e2cef00a62cef0000fa200070658800f9
:1046e000c62cef00ce2cef0029003700862cef00ff
:1046f000000021001000780070648800a62cef00f4
:10470000000021001000780070658800c62cef00c2
:104710000000210010007800706688001c0037003f
:10472000862cef00000021001000780070648800e3
:10473000a62cef00000021001000780070658800b2
:10474000c62cef00ce2cef0011003700862cef00b6
:1047500000fa200070648800a62cef0000fa200008
:1047600070658800c62cef0000fa20007066880093
:1047700007003700862cef008e2cef00a62cef00f0
:10478000ae2cef00c62cef00ce2cef000000000096
:104790000080fa00000006000200fa00004f7800d6
:1047a0001e80fb00e40f50003f003200e40f500079
:1047b0000c003c00e10f50001d003200e10f5000e2
:1047c00003003c000000e0000f0032006c003700e6
:1047d000e20f500020003200e30f500028003200aa
:1047e00067003700e60f500043003200e60f50002c
:1047f00037003500e70f50004c003200e80f500042
:10480000550032005e003700800021001000780063
:10481000306188002e2cef00462cef004e2cef006c
:10482000662cef0000fa2000706388005b00370000
:10483000262cef002e2cef008000210010007800c5
:10484000306288004e2cef00662cef0000fa20004a
:104850007063880051003700262cef0000fa20001a
:1048600070618800800021001000780030628800ac
:104870004e2cef00662cef006e2cef004700370047
:10488000262cef0000fa200070618800462cef0013
:104890004e2cef008000210010007800306388006b
:1048a0006e2cef003d003700262cef002e2cef0081
:1048b000462cef0000fa2000706288008000210082
:1048c00010007800306388006e2cef003300370052
:1048d0008000210010007800306188002e2cef004d
:1048e000462cef0000fa200070628800662cef0072
:1048f0006e2cef0029003700262cef0080002100ed
:104900001000780070618800462cef0080002100c4
:104910001000780070628800662cef008000210093
:1049200010007800706388001c003700262cef0010
:10493000800021001000780070618800462cef0094
:10494000800021001000780070628800662cef0063
:104950006e2cef0011003700262cef0000fa20002b
:1049600070618800462cef0000fa20007062880019
:10497000662cef0000fa2000706388000700370003
:10498000262cef002e2cef00462cef004e2cef00d3
:10499000662cef006e2cef00000000000080fa0093
:1049a000000006000000fa00000021008000eb007b
:1049b00011009800000021008000eb000108780041
:1049c00000002100c1032000210098000000210008
:1049d000a1f0200031009800800021008000eb0051
:1049e00011009800800021008000eb000108780091
:1049f00080002100c10320002100980080002100d8
:104a0000a1f0200031009800000121008000eb009f
:104a100001087800000121008000eb0011009800df
:104a2000000121008000eb0021009800000121001e
:104a30008040eb00614098000001210041c1b300bb
:104a400071409800800121003100200001087800a9
:104a50008001210041002000110098008001210008
:104a60007100200021009800800121008040eb00af
:104a7000614098008001210041c1b300714098005d
:104a8000020221006000b8000089be00020221007d
:104a90006000b800200198003101980082022100d6
:104aa0006000b8000089be00820221006000b800ea
:104ab00020019800310198003030ef003230ef00d3
:104ac0003430ef003630ef00a03521008040eb009d
:104ad00001487800907380004f00de0000407800ad
:104ae00080407800b0352100014878000000eb00dc
:104af000e09a8800e03521008040eb000148780012
:104b0000003621008040eb0001487800907380005f
:104b10004f00de0000407800804078001036210011
:104b2000014878000000eb00109b8800403621000f
:104b30008040eb00014878000080fa000000060089
:104b40002400fa00889fbe00200f9800310f9800c3
:104b5000420f9800530f9800640f9800750f98004b
:104b60000617980017179800c0818000d181800037
:104b7000e0818800f181880000828000118280003d
:104b8000c0818800d18188006e089000fe089000e6
:104b9000823e20000300200084ae070000828800cf
:104ba000118288000e1090009e109000823e20001e
:104bb000030020007dae0700008fbe000082800051
:104bc000118280003e011000ae8118000200be007c
:104bd0002007980031079800c0818000d1818000b3
:104be0003e011000ae8118000200be004007980090
:104bf00051079800e0818000f18180003e011000a3
:104c0000ae8118000200be0060079800710798008e
:104c10002e089000cf80de002e0190008192b90016
:104c20003e0190008091b900020242002e019000e6
:104c30000011b80003024200840178003e08900091
:104c40006102b9002e039000be0390004e00900058
:104c5000de0090000000530081805b0080abb90053
